{
  "contractName": "FoodTraceability",
  "abi": [
    {
      "inputs": [],
      "stateMutability": "nonpayable",
      "type": "constructor"
    },
    {
      "anonymous": false,
      "inputs": [
        {
          "indexed": false,
          "internalType": "string",
          "name": "id",
          "type": "string"
        },
        {
          "indexed": false,
          "internalType": "string",
          "name": "details",
          "type": "string"
        },
        {
          "indexed": false,
          "internalType": "uint256",
          "name": "expirationTime",
          "type": "uint256"
        },
        {
          "indexed": false,
          "internalType": "uint256",
          "name": "importTime",
          "type": "uint256"
        }
      ],
      "name": "FoodItemAdded",
      "type": "event"
    },
    {
      "anonymous": false,
      "inputs": [
        {
          "indexed": false,
          "internalType": "string",
          "name": "id",
          "type": "string"
        },
        {
          "indexed": false,
          "internalType": "uint256",
          "name": "exportTime",
          "type": "uint256"
        }
      ],
      "name": "FoodItemExported",
      "type": "event"
    },
    {
      "anonymous": false,
      "inputs": [
        {
          "indexed": false,
          "internalType": "string",
          "name": "id",
          "type": "string"
        },
        {
          "indexed": false,
          "internalType": "string",
          "name": "processingData",
          "type": "string"
        }
      ],
      "name": "ProcessingDataUpdated",
      "type": "event"
    },
    {
      "anonymous": false,
      "inputs": [
        {
          "indexed": false,
          "internalType": "string",
          "name": "id",
          "type": "string"
        },
        {
          "indexed": false,
          "internalType": "string",
          "name": "productionData",
          "type": "string"
        }
      ],
      "name": "ProductionDataUpdated",
      "type": "event"
    },
    {
      "anonymous": false,
      "inputs": [
        {
          "indexed": true,
          "internalType": "bytes32",
          "name": "role",
          "type": "bytes32"
        },
        {
          "indexed": true,
          "internalType": "bytes32",
          "name": "previousAdminRole",
          "type": "bytes32"
        },
        {
          "indexed": true,
          "internalType": "bytes32",
          "name": "newAdminRole",
          "type": "bytes32"
        }
      ],
      "name": "RoleAdminChanged",
      "type": "event"
    },
    {
      "anonymous": false,
      "inputs": [
        {
          "indexed": true,
          "internalType": "bytes32",
          "name": "role",
          "type": "bytes32"
        },
        {
          "indexed": true,
          "internalType": "address",
          "name": "account",
          "type": "address"
        },
        {
          "indexed": true,
          "internalType": "address",
          "name": "sender",
          "type": "address"
        }
      ],
      "name": "RoleGranted",
      "type": "event"
    },
    {
      "anonymous": false,
      "inputs": [
        {
          "indexed": true,
          "internalType": "bytes32",
          "name": "role",
          "type": "bytes32"
        },
        {
          "indexed": true,
          "internalType": "address",
          "name": "account",
          "type": "address"
        },
        {
          "indexed": true,
          "internalType": "address",
          "name": "sender",
          "type": "address"
        }
      ],
      "name": "RoleRevoked",
      "type": "event"
    },
    {
      "inputs": [],
      "name": "ADMIN_ROLE",
      "outputs": [
        {
          "internalType": "bytes32",
          "name": "",
          "type": "bytes32"
        }
      ],
      "stateMutability": "view",
      "type": "function",
      "constant": true
    },
    {
      "inputs": [],
      "name": "CONSUMER_ROLE",
      "outputs": [
        {
          "internalType": "bytes32",
          "name": "",
          "type": "bytes32"
        }
      ],
      "stateMutability": "view",
      "type": "function",
      "constant": true
    },
    {
      "inputs": [],
      "name": "DEFAULT_ADMIN_ROLE",
      "outputs": [
        {
          "internalType": "bytes32",
          "name": "",
          "type": "bytes32"
        }
      ],
      "stateMutability": "view",
      "type": "function",
      "constant": true
    },
    {
      "inputs": [],
      "name": "DISTRIBUTOR_ROLE",
      "outputs": [
        {
          "internalType": "bytes32",
          "name": "",
          "type": "bytes32"
        }
      ],
      "stateMutability": "view",
      "type": "function",
      "constant": true
    },
    {
      "inputs": [],
      "name": "FARMER_ROLE",
      "outputs": [
        {
          "internalType": "bytes32",
          "name": "",
          "type": "bytes32"
        }
      ],
      "stateMutability": "view",
      "type": "function",
      "constant": true
    },
    {
      "inputs": [],
      "name": "LOGISTIC_ROLE",
      "outputs": [
        {
          "internalType": "bytes32",
          "name": "",
          "type": "bytes32"
        }
      ],
      "stateMutability": "view",
      "type": "function",
      "constant": true
    },
    {
      "inputs": [],
      "name": "PROCESSOR_ROLE",
      "outputs": [
        {
          "internalType": "bytes32",
          "name": "",
          "type": "bytes32"
        }
      ],
      "stateMutability": "view",
      "type": "function",
      "constant": true
    },
    {
      "inputs": [],
      "name": "PRODUCER_ROLE",
      "outputs": [
        {
          "internalType": "bytes32",
          "name": "",
          "type": "bytes32"
        }
      ],
      "stateMutability": "view",
      "type": "function",
      "constant": true
    },
    {
      "inputs": [],
      "name": "RETAILER_ROLE",
      "outputs": [
        {
          "internalType": "bytes32",
          "name": "",
          "type": "bytes32"
        }
      ],
      "stateMutability": "view",
      "type": "function",
      "constant": true
    },
    {
      "inputs": [
        {
          "internalType": "uint256",
          "name": "",
          "type": "uint256"
        }
      ],
      "name": "foodIds",
      "outputs": [
        {
          "internalType": "string",
          "name": "",
          "type": "string"
        }
      ],
      "stateMutability": "view",
      "type": "function",
      "constant": true
    },
    {
      "inputs": [
        {
          "internalType": "string",
          "name": "",
          "type": "string"
        }
      ],
      "name": "foodItems",
      "outputs": [
        {
          "internalType": "string",
          "name": "id",
          "type": "string"
        },
        {
          "internalType": "string",
          "name": "details",
          "type": "string"
        },
        {
          "internalType": "uint256",
          "name": "expirationTime",
          "type": "uint256"
        },
        {
          "internalType": "uint256",
          "name": "importTime",
          "type": "uint256"
        },
        {
          "internalType": "uint256",
          "name": "exportTime",
          "type": "uint256"
        },
        {
          "internalType": "string",
          "name": "productionData",
          "type": "string"
        },
        {
          "internalType": "string",
          "name": "processingData",
          "type": "string"
        }
      ],
      "stateMutability": "view",
      "type": "function",
      "constant": true
    },
    {
      "inputs": [
        {
          "internalType": "bytes32",
          "name": "role",
          "type": "bytes32"
        }
      ],
      "name": "getRoleAdmin",
      "outputs": [
        {
          "internalType": "bytes32",
          "name": "",
          "type": "bytes32"
        }
      ],
      "stateMutability": "view",
      "type": "function",
      "constant": true
    },
    {
      "inputs": [
        {
          "internalType": "bytes32",
          "name": "role",
          "type": "bytes32"
        },
        {
          "internalType": "address",
          "name": "account",
          "type": "address"
        }
      ],
      "name": "grantRole",
      "outputs": [],
      "stateMutability": "nonpayable",
      "type": "function"
    },
    {
      "inputs": [
        {
          "internalType": "bytes32",
          "name": "role",
          "type": "bytes32"
        },
        {
          "internalType": "address",
          "name": "account",
          "type": "address"
        }
      ],
      "name": "hasRole",
      "outputs": [
        {
          "internalType": "bool",
          "name": "",
          "type": "bool"
        }
      ],
      "stateMutability": "view",
      "type": "function",
      "constant": true
    },
    {
      "inputs": [
        {
          "internalType": "bytes32",
          "name": "role",
          "type": "bytes32"
        },
        {
          "internalType": "address",
          "name": "account",
          "type": "address"
        }
      ],
      "name": "renounceRole",
      "outputs": [],
      "stateMutability": "nonpayable",
      "type": "function"
    },
    {
      "inputs": [
        {
          "internalType": "bytes32",
          "name": "role",
          "type": "bytes32"
        },
        {
          "internalType": "address",
          "name": "account",
          "type": "address"
        }
      ],
      "name": "revokeRole",
      "outputs": [],
      "stateMutability": "nonpayable",
      "type": "function"
    },
    {
      "inputs": [
        {
          "internalType": "bytes4",
          "name": "interfaceId",
          "type": "bytes4"
        }
      ],
      "name": "supportsInterface",
      "outputs": [
        {
          "internalType": "bool",
          "name": "",
          "type": "bool"
        }
      ],
      "stateMutability": "view",
      "type": "function",
      "constant": true
    },
    {
      "inputs": [
        {
          "internalType": "string",
          "name": "id",
          "type": "string"
        },
        {
          "internalType": "string",
          "name": "details",
          "type": "string"
        },
        {
          "internalType": "uint256",
          "name": "expirationTime",
          "type": "uint256"
        }
      ],
      "name": "addFoodItem",
      "outputs": [],
      "stateMutability": "nonpayable",
      "type": "function"
    },
    {
      "inputs": [
        {
          "internalType": "string",
          "name": "id",
          "type": "string"
        },
        {
          "internalType": "string",
          "name": "data",
          "type": "string"
        }
      ],
      "name": "updateProductionData",
      "outputs": [],
      "stateMutability": "nonpayable",
      "type": "function"
    },
    {
      "inputs": [
        {
          "internalType": "string",
          "name": "id",
          "type": "string"
        },
        {
          "internalType": "string",
          "name": "data",
          "type": "string"
        }
      ],
      "name": "updateProcessingData",
      "outputs": [],
      "stateMutability": "nonpayable",
      "type": "function"
    },
    {
      "inputs": [
        {
          "internalType": "string",
          "name": "id",
          "type": "string"
        }
      ],
      "name": "getFoodItem",
      "outputs": [
        {
          "components": [
            {
              "internalType": "string",
              "name": "id",
              "type": "string"
            },
            {
              "internalType": "string",
              "name": "details",
              "type": "string"
            },
            {
              "internalType": "uint256",
              "name": "expirationTime",
              "type": "uint256"
            },
            {
              "internalType": "uint256",
              "name": "importTime",
              "type": "uint256"
            },
            {
              "internalType": "uint256",
              "name": "exportTime",
              "type": "uint256"
            },
            {
              "internalType": "string",
              "name": "productionData",
              "type": "string"
            },
            {
              "internalType": "string",
              "name": "processingData",
              "type": "string"
            }
          ],
          "internalType": "struct FoodTraceability.FoodItem",
          "name": "",
          "type": "tuple"
        }
      ],
      "stateMutability": "view",
      "type": "function",
      "constant": true
    },
    {
      "inputs": [
        {
          "internalType": "string",
          "name": "id",
          "type": "string"
        }
      ],
      "name": "exportFoodItem",
      "outputs": [],
      "stateMutability": "nonpayable",
      "type": "function"
    },
    {
      "inputs": [],
      "name": "getItemCount",
      "outputs": [
        {
          "internalType": "uint256",
          "name": "",
          "type": "uint256"
        }
      ],
      "stateMutability": "view",
      "type": "function",
      "constant": true
    }
  ],
  "bytecode": "0x60806040523480156200001157600080fd5b50620000276000801b33620001bd60201b60201c565b620000597f7c6181838a71a779e445600d4c6ecbe16bacf2b3c5bda69c29fada66d1b645d133620001bd60201b60201c565b6200008b7ffbd454f36a7e1a388bd6fc3ab10d434aa4578f811acbbcf33afb1c697486313c33620001bd60201b60201c565b620000bd7f8eb467f061ca67f42a2d2ca4a346fc9fb645efc0ba75056ee9f71c3a0ccc10a833620001bd60201b60201c565b620000ef7fe61decff6e4a5c6b5a3d3cbd28f882e595173563b49353ce5f31dba2de7f05ee33620001bd60201b60201c565b620001217fa49807205ce4d355092ef5a8a18f56e8913cf4a201fbe287825b095693c2177533620001bd60201b60201c565b620001537fdcbffdc2cba226cc224f681788c09a9b05fe5b6d8d773cd8d27706ee6d27f61d33620001bd60201b60201c565b620001857f2a5f906c256a5d799494fcd066e1f6c077689de1cdb65052a1624de4bace99bf33620001bd60201b60201c565b620001b77f9d56108290ea0bc9c5c59c3ad357dca9d1b29ed7f3ae1443bef2fa2159bdf5e833620001bd60201b60201c565b62000320565b620001cf8282620002ae60201b60201c565b620002aa57600160008084815260200190815260200160002060000160008373ffffffffffffffffffffffffffffffffffffffff1673ffffffffffffffffffffffffffffffffffffffff16815260200190815260200160002060006101000a81548160ff0219169083151502179055506200024f6200031860201b60201c565b73ffffffffffffffffffffffffffffffffffffffff168173ffffffffffffffffffffffffffffffffffffffff16837f2f8788117e7eff1d82e926ec794901d17c78024a50270940304540a733656f0d60405160405180910390a45b5050565b600080600084815260200190815260200160002060000160008373ffffffffffffffffffffffffffffffffffffffff1673ffffffffffffffffffffffffffffffffffffffff16815260200190815260200160002060009054906101000a900460ff16905092915050565b600033905090565b612ae780620003306000396000f3fe608060405234801561001057600080fd5b506004361061014d5760003560e01c8063820cfd26116100c3578063cb3e1fe71161007c578063cb3e1fe7146103a6578063d547741f146103c4578063de85b0d2146103e0578063f0bd87cc14610410578063f39439701461042e578063fdc6a8a11461044c5761014d565b8063820cfd26146102b85780638222bdb2146102ee57806391d148541461030c578063a217fddf1461033c578063c8e98cd31461035a578063ca10e7681461038a5761014d565b806336568abe1161011557806336568abe1461020857806343dcb526146102245780634bc02da61461024257806358f6bc571461026057806375b238fc1461027c5780637749cf231461029a5761014d565b806301ffc9a714610152578063208c67dc146101825780632115e7bf1461019e578063248a9ca3146101bc5780632f2ff15d146101ec575b600080fd5b61016c600480360381019061016791906119d4565b610468565b6040516101799190611a1c565b60405180910390f35b61019c60048036038101906101979190611bb3565b6104e2565b005b6101a661074c565b6040516101b39190611c57565b60405180910390f35b6101d660048036038101906101d19190611c9e565b610770565b6040516101e39190611c57565b60405180910390f35b61020660048036038101906102019190611d29565b61078f565b005b610222600480360381019061021d9190611d29565b6107b0565b005b61022c610833565b6040516102399190611c57565b60405180910390f35b61024a610857565b6040516102579190611c57565b60405180910390f35b61027a60048036038101906102759190611d69565b61087b565b005b6102846109c0565b6040516102919190611c57565b60405180910390f35b6102a26109e4565b6040516102af9190611df0565b60405180910390f35b6102d260048036038101906102cd9190611e0b565b6109f1565b6040516102e59796959493929190611ed3565b60405180910390f35b6102f6610c69565b6040516103039190611c57565b60405180910390f35b61032660048036038101906103219190611d29565b610c8d565b6040516103339190611a1c565b60405180910390f35b610344610cf7565b6040516103519190611c57565b60405180910390f35b610374600480360381019061036f9190611e0b565b610cfe565b6040516103819190612068565b60405180910390f35b6103a4600480360381019061039f9190611d69565b61100c565b005b6103ae611151565b6040516103bb9190611c57565b60405180910390f35b6103de60048036038101906103d99190611d29565b611175565b005b6103fa60048036038101906103f5919061208a565b611196565b60405161040791906120b7565b60405180910390f35b610418611242565b6040516104259190611c57565b60405180910390f35b610436611266565b6040516104439190611c57565b60405180910390f35b61046660048036038101906104619190611e0b565b61128a565b005b60007f7965db0b000000000000000000000000000000000000000000000000000000007bffffffffffffffffffffffffffffffffffffffffffffffffffffffff1916827bffffffffffffffffffffffffffffffffffffffffffffffffffffffff191614806104db57506104da826113f6565b5b9050919050565b61050c7f7c6181838a71a779e445600d4c6ecbe16bacf2b3c5bda69c29fada66d1b645d133610c8d565b8061053d575061053c7f8eb467f061ca67f42a2d2ca4a346fc9fb645efc0ba75056ee9f71c3a0ccc10a833610c8d565b5b61057c576040517f08c379a00000000000000000000000000000000000000000000000000000000081526004016105739061214b565b60405180910390fd5b600060018460405161058e91906121a7565b908152602001604051809103902060000180546105aa906121ed565b9050146105ec576040517f08c379a00000000000000000000000000000000000000000000000000000000081526004016105e39061226a565b60405180910390fd5b6040518060e00160405280848152602001838152602001828152602001428152602001600081526020016040518060200160405280600081525081526020016040518060200160405280600081525081525060018460405161064e91906121a7565b908152602001604051809103902060008201518160000190816106719190612436565b5060208201518160010190816106879190612436565b5060408201518160020155606082015181600301556080820151816004015560a08201518160050190816106bb9190612436565b5060c08201518160060190816106d19190612436565b509050506002839080600181540180825580915050600190039060005260206000200160009091909190915090816107099190612436565b507f2214c57575a75cea361a689ce3e54a0de8a96eb873bc77897aeaf833805dec0a8383834260405161073f9493929190612508565b60405180910390a1505050565b7f2a5f906c256a5d799494fcd066e1f6c077689de1cdb65052a1624de4bace99bf81565b6000806000838152602001908152602001600020600101549050919050565b61079882610770565b6107a181611460565b6107ab8383611474565b505050565b6107b8611554565b73ffffffffffffffffffffffffffffffffffffffff168173ffffffffffffffffffffffffffffffffffffffff1614610825576040517f08c379a000000000000000000000000000000000000000000000000000000000815260040161081c906125cd565b60405180910390fd5b61082f828261155c565b5050565b7fdcbffdc2cba226cc224f681788c09a9b05fe5b6d8d773cd8d27706ee6d27f61d81565b7f9d56108290ea0bc9c5c59c3ad357dca9d1b29ed7f3ae1443bef2fa2159bdf5e881565b6108a57f8eb467f061ca67f42a2d2ca4a346fc9fb645efc0ba75056ee9f71c3a0ccc10a833610c8d565b6108e4576040517f08c379a00000000000000000000000000000000000000000000000000000000081526004016108db9061265f565b60405180910390fd5b60006001836040516108f691906121a7565b90815260200160405180910390206000018054610912906121ed565b905003610954576040517f08c379a000000000000000000000000000000000000000000000000000000000815260040161094b906126cb565b60405180910390fd5b8060018360405161096591906121a7565b908152602001604051809103902060050190816109829190612436565b507f4003f733d60b6f47048ffb3cab53f92cd71fb4358b2269044704db4166e73fc282826040516109b49291906126eb565b60405180910390a15050565b7fa49807205ce4d355092ef5a8a18f56e8913cf4a201fbe287825b095693c2177581565b6000600280549050905090565b600181805160208101820180518482526020830160208501208183528095505050505050600091509050806000018054610a2a906121ed565b80601f0160208091040260200160405190810160405280929190818152602001828054610a56906121ed565b8015610aa35780601f10610a7857610100808354040283529160200191610aa3565b820191906000526020600020905b815481529060010190602001808311610a8657829003601f168201915b505050505090806001018054610ab8906121ed565b80601f0160208091040260200160405190810160405280929190818152602001828054610ae4906121ed565b8015610b315780601f10610b0657610100808354040283529160200191610b31565b820191906000526020600020905b815481529060010190602001808311610b1457829003601f168201915b505050505090806002015490806003015490806004015490806005018054610b58906121ed565b80601f0160208091040260200160405190810160405280929190818152602001828054610b84906121ed565b8015610bd15780601f10610ba657610100808354040283529160200191610bd1565b820191906000526020600020905b815481529060010190602001808311610bb457829003601f168201915b505050505090806006018054610be6906121ed565b80601f0160208091040260200160405190810160405280929190818152602001828054610c12906121ed565b8015610c5f5780601f10610c3457610100808354040283529160200191610c5f565b820191906000526020600020905b815481529060010190602001808311610c4257829003601f168201915b5050505050905087565b7fe61decff6e4a5c6b5a3d3cbd28f882e595173563b49353ce5f31dba2de7f05ee81565b600080600084815260200190815260200160002060000160008373ffffffffffffffffffffffffffffffffffffffff1673ffffffffffffffffffffffffffffffffffffffff16815260200190815260200160002060009054906101000a900460ff16905092915050565b6000801b81565b610d0661192b565b6000600183604051610d1891906121a7565b90815260200160405180910390206000018054610d34906121ed565b905003610d76576040517f08c379a0000000000000000000000000000000000000000000000000000000008152600401610d6d906126cb565b60405180910390fd5b600182604051610d8691906121a7565b90815260200160405180910390206040518060e0016040529081600082018054610daf906121ed565b80601f0160208091040260200160405190810160405280929190818152602001828054610ddb906121ed565b8015610e285780601f10610dfd57610100808354040283529160200191610e28565b820191906000526020600020905b815481529060010190602001808311610e0b57829003601f168201915b50505050508152602001600182018054610e41906121ed565b80601f0160208091040260200160405190810160405280929190818152602001828054610e6d906121ed565b8015610eba5780601f10610e8f57610100808354040283529160200191610eba565b820191906000526020600020905b815481529060010190602001808311610e9d57829003601f168201915b50505050508152602001600282015481526020016003820154815260200160048201548152602001600582018054610ef1906121ed565b80601f0160208091040260200160405190810160405280929190818152602001828054610f1d906121ed565b8015610f6a5780601f10610f3f57610100808354040283529160200191610f6a565b820191906000526020600020905b815481529060010190602001808311610f4d57829003601f168201915b50505050508152602001600682018054610f83906121ed565b80601f0160208091040260200160405190810160405280929190818152602001828054610faf906121ed565b8015610ffc5780601f10610fd157610100808354040283529160200191610ffc565b820191906000526020600020905b815481529060010190602001808311610fdf57829003601f168201915b5050505050815250509050919050565b6110367fe61decff6e4a5c6b5a3d3cbd28f882e595173563b49353ce5f31dba2de7f05ee33610c8d565b611075576040517f08c379a000000000000000000000000000000000000000000000000000000000815260040161106c90612794565b60405180910390fd5b600060018360405161108791906121a7565b908152602001604051809103902060000180546110a3906121ed565b9050036110e5576040517f08c379a00000000000000000000000000000000000000000000000000000000081526004016110dc906126cb565b60405180910390fd5b806001836040516110f691906121a7565b908152602001604051809103902060060190816111139190612436565b507f12e34e95e12f505644e15bc87d92746579d43e7ba4b78d95faebd1d2a616103982826040516111459291906126eb565b60405180910390a15050565b7f8eb467f061ca67f42a2d2ca4a346fc9fb645efc0ba75056ee9f71c3a0ccc10a881565b61117e82610770565b61118781611460565b611191838361155c565b505050565b600281815481106111a657600080fd5b9060005260206000200160009150905080546111c1906121ed565b80601f01602080910402602001604051908101604052809291908181526020018280546111ed906121ed565b801561123a5780601f1061120f5761010080835404028352916020019161123a565b820191906000526020600020905b81548152906001019060200180831161121d57829003601f168201915b505050505081565b7ffbd454f36a7e1a388bd6fc3ab10d434aa4578f811acbbcf33afb1c697486313c81565b7f7c6181838a71a779e445600d4c6ecbe16bacf2b3c5bda69c29fada66d1b645d181565b600060018260405161129c91906121a7565b908152602001604051809103902060000180546112b8906121ed565b9050036112fa576040517f08c379a00000000000000000000000000000000000000000000000000000000081526004016112f1906126cb565b60405180910390fd5b6113247ffbd454f36a7e1a388bd6fc3ab10d434aa4578f811acbbcf33afb1c697486313c33610c8d565b8061135557506113547fdcbffdc2cba226cc224f681788c09a9b05fe5b6d8d773cd8d27706ee6d27f61d33610c8d565b5b611394576040517f08c379a000000000000000000000000000000000000000000000000000000000815260040161138b90612826565b60405180910390fd5b426001826040516113a591906121a7565b9081526020016040518091039020600401819055507f75265d8e019fb65c22f9b704c9bdd97988e480ff1a1291aaee40efa0bacda69581426040516113eb929190612846565b60405180910390a150565b60007f01ffc9a7000000000000000000000000000000000000000000000000000000007bffffffffffffffffffffffffffffffffffffffffffffffffffffffff1916827bffffffffffffffffffffffffffffffffffffffffffffffffffffffff1916149050919050565b6114718161146c611554565b61163d565b50565b61147e8282610c8d565b61155057600160008084815260200190815260200160002060000160008373ffffffffffffffffffffffffffffffffffffffff1673ffffffffffffffffffffffffffffffffffffffff16815260200190815260200160002060006101000a81548160ff0219169083151502179055506114f5611554565b73ffffffffffffffffffffffffffffffffffffffff168173ffffffffffffffffffffffffffffffffffffffff16837f2f8788117e7eff1d82e926ec794901d17c78024a50270940304540a733656f0d60405160405180910390a45b5050565b600033905090565b6115668282610c8d565b1561163957600080600084815260200190815260200160002060000160008373ffffffffffffffffffffffffffffffffffffffff1673ffffffffffffffffffffffffffffffffffffffff16815260200190815260200160002060006101000a81548160ff0219169083151502179055506115de611554565b73ffffffffffffffffffffffffffffffffffffffff168173ffffffffffffffffffffffffffffffffffffffff16837ff6391f5c32d9c69d2a47ea670b442974b53935d1edc7fd64eb21e047a839171b60405160405180910390a45b5050565b6116478282610c8d565b6116be57611654816116c2565b6116628360001c60206116ef565b60405160200161167392919061290e565b6040516020818303038152906040526040517f08c379a00000000000000000000000000000000000000000000000000000000081526004016116b591906120b7565b60405180910390fd5b5050565b60606116e88273ffffffffffffffffffffffffffffffffffffffff16601460ff166116ef565b9050919050565b6060600060028360026117029190612977565b61170c91906129b9565b67ffffffffffffffff81111561172557611724611a52565b5b6040519080825280601f01601f1916602001820160405280156117575781602001600182028036833780820191505090505b5090507f30000000000000000000000000000000000000000000000000000000000000008160008151811061178f5761178e6129ed565b5b60200101907effffffffffffffffffffffffffffffffffffffffffffffffffffffffffffff1916908160001a9053507f7800000000000000000000000000000000000000000000000000000000000000816001815181106117f3576117f26129ed565b5b60200101907effffffffffffffffffffffffffffffffffffffffffffffffffffffffffffff1916908160001a905350600060018460026118339190612977565b61183d91906129b9565b90505b60018111156118dd577f3031323334353637383961626364656600000000000000000000000000000000600f86166010811061187f5761187e6129ed565b5b1a60f81b828281518110611896576118956129ed565b5b60200101907effffffffffffffffffffffffffffffffffffffffffffffffffffffffffffff1916908160001a905350600485901c9450806118d690612a1c565b9050611840565b5060008414611921576040517f08c379a000000000000000000000000000000000000000000000000000000000815260040161191890612a91565b60405180910390fd5b8091505092915050565b6040518060e00160405280606081526020016060815260200160008152602001600081526020016000815260200160608152602001606081525090565b6000604051905090565b600080fd5b600080fd5b60007fffffffff0000000000000000000000000000000000000000000000000000000082169050919050565b6119b18161197c565b81146119bc57600080fd5b50565b6000813590506119ce816119a8565b92915050565b6000602082840312156119ea576119e9611972565b5b60006119f8848285016119bf565b91505092915050565b60008115159050919050565b611a1681611a01565b82525050565b6000602082019050611a316000830184611a0d565b92915050565b600080fd5b600080fd5b6000601f19601f8301169050919050565b7f4e487b7100000000000000000000000000000000000000000000000000000000600052604160045260246000fd5b611a8a82611a41565b810181811067ffffffffffffffff82111715611aa957611aa8611a52565b5b80604052505050565b6000611abc611968565b9050611ac88282611a81565b919050565b600067ffffffffffffffff821115611ae857611ae7611a52565b5b611af182611a41565b9050602081019050919050565b82818337600083830152505050565b6000611b20611b1b84611acd565b611ab2565b905082815260208101848484011115611b3c57611b3b611a3c565b5b611b47848285611afe565b509392505050565b600082601f830112611b6457611b63611a37565b5b8135611b74848260208601611b0d565b91505092915050565b6000819050919050565b611b9081611b7d565b8114611b9b57600080fd5b50565b600081359050611bad81611b87565b92915050565b600080600060608486031215611bcc57611bcb611972565b5b600084013567ffffffffffffffff811115611bea57611be9611977565b5b611bf686828701611b4f565b935050602084013567ffffffffffffffff811115611c1757611c16611977565b5b611c2386828701611b4f565b9250506040611c3486828701611b9e565b9150509250925092565b6000819050919050565b611c5181611c3e565b82525050565b6000602082019050611c6c6000830184611c48565b92915050565b611c7b81611c3e565b8114611c8657600080fd5b50565b600081359050611c9881611c72565b92915050565b600060208284031215611cb457611cb3611972565b5b6000611cc284828501611c89565b91505092915050565b600073ffffffffffffffffffffffffffffffffffffffff82169050919050565b6000611cf682611ccb565b9050919050565b611d0681611ceb565b8114611d1157600080fd5b50565b600081359050611d2381611cfd565b92915050565b60008060408385031215611d4057611d3f611972565b5b6000611d4e85828601611c89565b9250506020611d5f85828601611d14565b9150509250929050565b60008060408385031215611d8057611d7f611972565b5b600083013567ffffffffffffffff811115611d9e57611d9d611977565b5b611daa85828601611b4f565b925050602083013567ffffffffffffffff811115611dcb57611dca611977565b5b611dd785828601611b4f565b9150509250929050565b611dea81611b7d565b82525050565b6000602082019050611e056000830184611de1565b92915050565b600060208284031215611e2157611e20611972565b5b600082013567ffffffffffffffff811115611e3f57611e3e611977565b5b611e4b84828501611b4f565b91505092915050565b600081519050919050565b600082825260208201905092915050565b60005b83811015611e8e578082015181840152602081019050611e73565b60008484015250505050565b6000611ea582611e54565b611eaf8185611e5f565b9350611ebf818560208601611e70565b611ec881611a41565b840191505092915050565b600060e0820190508181036000830152611eed818a611e9a565b90508181036020830152611f018189611e9a565b9050611f106040830188611de1565b611f1d6060830187611de1565b611f2a6080830186611de1565b81810360a0830152611f3c8185611e9a565b905081810360c0830152611f508184611e9a565b905098975050505050505050565b600082825260208201905092915050565b6000611f7a82611e54565b611f848185611f5e565b9350611f94818560208601611e70565b611f9d81611a41565b840191505092915050565b611fb181611b7d565b82525050565b600060e0830160008301518482036000860152611fd48282611f6f565b91505060208301518482036020860152611fee8282611f6f565b91505060408301516120036040860182611fa8565b5060608301516120166060860182611fa8565b5060808301516120296080860182611fa8565b5060a083015184820360a08601526120418282611f6f565b91505060c083015184820360c086015261205b8282611f6f565b9150508091505092915050565b600060208201905081810360008301526120828184611fb7565b905092915050565b6000602082840312156120a05761209f611972565b5b60006120ae84828501611b9e565b91505092915050565b600060208201905081810360008301526120d18184611e9a565b905092915050565b7f43616c6c6572206973206e6f7420617574686f72697a656420746f206164642060008201527f666f6f64206974656d7300000000000000000000000000000000000000000000602082015250565b6000612135602a83611e5f565b9150612140826120d9565b604082019050919050565b6000602082019050818103600083015261216481612128565b9050919050565b600081905092915050565b600061218182611e54565b61218b818561216b565b935061219b818560208601611e70565b80840191505092915050565b60006121b38284612176565b915081905092915050565b7f4e487b7100000000000000000000000000000000000000000000000000000000600052602260045260246000fd5b6000600282049050600182168061220557607f821691505b602082108103612218576122176121be565b5b50919050565b7f466f6f64206974656d20616c7265616479206578697374732e00000000000000600082015250565b6000612254601983611e5f565b915061225f8261221e565b602082019050919050565b6000602082019050818103600083015261228381612247565b9050919050565b60008190508160005260206000209050919050565b60006020601f8301049050919050565b600082821b905092915050565b6000600883026122ec7fffffffffffffffffffffffffffffffffffffffffffffffffffffffffffffffff826122af565b6122f686836122af565b95508019841693508086168417925050509392505050565b6000819050919050565b600061233361232e61232984611b7d565b61230e565b611b7d565b9050919050565b6000819050919050565b61234d83612318565b6123616123598261233a565b8484546122bc565b825550505050565b600090565b612376612369565b612381818484612344565b505050565b5b818110156123a55761239a60008261236e565b600181019050612387565b5050565b601f8211156123ea576123bb8161228a565b6123c48461229f565b810160208510156123d3578190505b6123e76123df8561229f565b830182612386565b50505b505050565b600082821c905092915050565b600061240d600019846008026123ef565b1980831691505092915050565b600061242683836123fc565b9150826002028217905092915050565b61243f82611e54565b67ffffffffffffffff81111561245857612457611a52565b5b61246282546121ed565b61246d8282856123a9565b600060209050601f8311600181146124a0576000841561248e578287015190505b612498858261241a565b865550612500565b601f1984166124ae8661228a565b60005b828110156124d6578489015182556001820191506020850194506020810190506124b1565b868310156124f357848901516124ef601f8916826123fc565b8355505b6001600288020188555050505b505050505050565b600060808201905081810360008301526125228187611e9a565b905081810360208301526125368186611e9a565b90506125456040830185611de1565b6125526060830184611de1565b95945050505050565b7f416363657373436f6e74726f6c3a2063616e206f6e6c792072656e6f756e636560008201527f20726f6c657320666f722073656c660000000000000000000000000000000000602082015250565b60006125b7602f83611e5f565b91506125c28261255b565b604082019050919050565b600060208201905081810360008301526125e6816125aa565b9050919050565b7f43616c6c6572206973206e6f7420617574686f72697a656420746f207570646160008201527f74652070726f64756374696f6e20646174610000000000000000000000000000602082015250565b6000612649603283611e5f565b9150612654826125ed565b604082019050919050565b600060208201905081810360008301526126788161263c565b9050919050565b7f466f6f64206974656d20646f6573206e6f742065786973742e00000000000000600082015250565b60006126b5601983611e5f565b91506126c08261267f565b602082019050919050565b600060208201905081810360008301526126e4816126a8565b9050919050565b600060408201905081810360008301526127058185611e9a565b905081810360208301526127198184611e9a565b90509392505050565b7f43616c6c6572206973206e6f7420617574686f72697a656420746f207570646160008201527f74652070726f63657373696e6720646174610000000000000000000000000000602082015250565b600061277e603283611e5f565b915061278982612722565b604082019050919050565b600060208201905081810360008301526127ad81612771565b9050919050565b7f43616c6c6572206973206e6f7420617574686f72697a656420746f206578706f60008201527f727420666f6f64206974656d7300000000000000000000000000000000000000602082015250565b6000612810602d83611e5f565b915061281b826127b4565b604082019050919050565b6000602082019050818103600083015261283f81612803565b9050919050565b600060408201905081810360008301526128608185611e9a565b905061286f6020830184611de1565b9392505050565b7f416363657373436f6e74726f6c3a206163636f756e7420000000000000000000600082015250565b60006128ac60178361216b565b91506128b782612876565b601782019050919050565b7f206973206d697373696e6720726f6c6520000000000000000000000000000000600082015250565b60006128f860118361216b565b9150612903826128c2565b601182019050919050565b60006129198261289f565b91506129258285612176565b9150612930826128eb565b915061293c8284612176565b91508190509392505050565b7f4e487b7100000000000000000000000000000000000000000000000000000000600052601160045260246000fd5b600061298282611b7d565b915061298d83611b7d565b925082820261299b81611b7d565b915082820484148315176129b2576129b1612948565b5b5092915050565b60006129c482611b7d565b91506129cf83611b7d565b92508282019050808211156129e7576129e6612948565b5b92915050565b7f4e487b7100000000000000000000000000000000000000000000000000000000600052603260045260246000fd5b6000612a2782611b7d565b915060008203612a3a57612a39612948565b5b600182039050919050565b7f537472696e67733a20686578206c656e67746820696e73756666696369656e74600082015250565b6000612a7b602083611e5f565b9150612a8682612a45565b602082019050919050565b60006020820190508181036000830152612aaa81612a6e565b905091905056fea2646970667358221220543dbc16c86681b597ae27eb2b18f638fb45747eaf41f395ddff799d94eab2ea64736f6c63430008130033",
  "immutableReferences": {},
  "source": "// SPDX-License-Identifier: MIT\n\n\npragma solidity ^0.8.19;\n\n//import \"@openzeppelin/contracts/access/AccessControl.sol\";\n// Assuming @openzeppelin/contracts is directly inside your contracts folder\nimport \"@openzeppelin/contracts/access/AccessControl.sol\";\ncontract FoodTraceability is AccessControl {\n    bytes32 public constant FARMER_ROLE = keccak256(\"FARMER_ROLE\");\n    bytes32 public constant DISTRIBUTOR_ROLE = keccak256(\"DISTRIBUTOR_ROLE\");\n    bytes32 public constant PRODUCER_ROLE = keccak256(\"PRODUCER_ROLE\");\n    bytes32 public constant PROCESSOR_ROLE = keccak256(\"PROCESSOR_ROLE\");\n    bytes32 public constant ADMIN_ROLE = keccak256(\"ADMIN_ROLE\");\n    bytes32 public constant LOGISTIC_ROLE = keccak256(\"LOGISTIC_ROLE\");\n    bytes32 public constant RETAILER_ROLE = keccak256(\"RETAILER_ROLE\");\n    bytes32 public constant CONSUMER_ROLE = keccak256(\"CONSUMER_ROLE\");\n\n    struct FoodItem {\n        string id;\n        string details;\n        uint expirationTime;\n        uint importTime;\n        uint exportTime;\n        string productionData;\n        string processingData;\n    }\n\n    mapping(string => FoodItem) public foodItems;\n    string[] public foodIds;\n\n    event FoodItemAdded(string id, string details, uint expirationTime, uint importTime);\n    event FoodItemExported(string id, uint exportTime);\n    event ProductionDataUpdated(string id, string productionData);\n    event ProcessingDataUpdated(string id, string processingData);\n\n    constructor() {\n        _grantRole(DEFAULT_ADMIN_ROLE, msg.sender);\n        _grantRole(FARMER_ROLE, msg.sender);\n        _grantRole(DISTRIBUTOR_ROLE, msg.sender);\n        _grantRole(PRODUCER_ROLE, msg.sender);\n        _grantRole(PROCESSOR_ROLE, msg.sender);\n        _grantRole(ADMIN_ROLE, msg.sender);\n        _grantRole(LOGISTIC_ROLE, msg.sender);\n        _grantRole(RETAILER_ROLE, msg.sender);\n        _grantRole(CONSUMER_ROLE, msg.sender);\n    }\n\n    function addFoodItem(string memory id, string memory details, uint expirationTime) public {\n        require(hasRole(FARMER_ROLE, msg.sender) || hasRole(PRODUCER_ROLE, msg.sender), \"Caller is not authorized to add food items\");\n        require(bytes(foodItems[id].id).length == 0, \"Food item already exists.\");\n        foodItems[id] = FoodItem(id, details, expirationTime, block.timestamp, 0, \"\", \"\");\n        foodIds.push(id);\n        emit FoodItemAdded(id, details, expirationTime, block.timestamp);\n    }\n\n    function updateProductionData(string memory id, string memory data) public {\n        require(hasRole(PRODUCER_ROLE, msg.sender), \"Caller is not authorized to update production data\");\n        require(bytes(foodItems[id].id).length != 0, \"Food item does not exist.\");\n        foodItems[id].productionData = data;\n        emit ProductionDataUpdated(id, data);\n    }\n\n    function updateProcessingData(string memory id, string memory data) public {\n        require(hasRole(PROCESSOR_ROLE, msg.sender), \"Caller is not authorized to update processing data\");\n        require(bytes(foodItems[id].id).length != 0, \"Food item does not exist.\");\n        foodItems[id].processingData = data;\n        emit ProcessingDataUpdated(id, data);\n    }\n\n    function getFoodItem(string memory id) public view returns (FoodItem memory) {\n        require(bytes(foodItems[id].id).length != 0, \"Food item does not exist.\");\n        return foodItems[id];\n    }\n\n    function exportFoodItem(string memory id) public {\n        require(bytes(foodItems[id].id).length != 0, \"Food item does not exist.\");\n        require(hasRole(DISTRIBUTOR_ROLE, msg.sender) || hasRole(LOGISTIC_ROLE, msg.sender), \"Caller is not authorized to export food items\");\n        foodItems[id].exportTime = block.timestamp;\n        emit FoodItemExported(id, block.timestamp);\n    }\n\n    function getItemCount() public view returns (uint) {\n        return foodIds.length;\n    }\n\n    // Commented out to resolve compilation error:\n    // function grantRole(bytes32 role, address account) public {\n    //     require(hasRole(DEFAULT_ADMIN_ROLE, msg.sender), \"Caller is not an admin\");\n    //     _grantRole(role, account);\n    // }\n}",
  "sourcePath": "/Users/meyzafirzana/food-traceability/food-traceability-frontend/contracts/FoodTraceability.sol",
  "compiler": {
    "name": "solc",
    "version": "0.8.19+commit.7dd6d404.Emscripten.clang"
  },
  "schemaVersion": "3.4.16",
  "updatedAt": "2024-07-01T04:56:26.172Z",
  "networkType": "ethereum",
  "devdoc": {
    "events": {
      "RoleAdminChanged(bytes32,bytes32,bytes32)": {
        "details": "Emitted when `newAdminRole` is set as ``role``'s admin role, replacing `previousAdminRole` `DEFAULT_ADMIN_ROLE` is the starting admin for all roles, despite {RoleAdminChanged} not being emitted signaling this. _Available since v3.1._"
      },
      "RoleGranted(bytes32,address,address)": {
        "details": "Emitted when `account` is granted `role`. `sender` is the account that originated the contract call, an admin role bearer except when using {AccessControl-_setupRole}."
      },
      "RoleRevoked(bytes32,address,address)": {
        "details": "Emitted when `account` is revoked `role`. `sender` is the account that originated the contract call:   - if using `revokeRole`, it is the admin role bearer   - if using `renounceRole`, it is the role bearer (i.e. `account`)"
      }
    },
    "kind": "dev",
    "methods": {
      "getRoleAdmin(bytes32)": {
        "details": "Returns the admin role that controls `role`. See {grantRole} and {revokeRole}. To change a role's admin, use {_setRoleAdmin}."
      },
      "grantRole(bytes32,address)": {
        "details": "Grants `role` to `account`. If `account` had not been already granted `role`, emits a {RoleGranted} event. Requirements: - the caller must have ``role``'s admin role. May emit a {RoleGranted} event."
      },
      "hasRole(bytes32,address)": {
        "details": "Returns `true` if `account` has been granted `role`."
      },
      "renounceRole(bytes32,address)": {
        "details": "Revokes `role` from the calling account. Roles are often managed via {grantRole} and {revokeRole}: this function's purpose is to provide a mechanism for accounts to lose their privileges if they are compromised (such as when a trusted device is misplaced). If the calling account had been revoked `role`, emits a {RoleRevoked} event. Requirements: - the caller must be `account`. May emit a {RoleRevoked} event."
      },
      "revokeRole(bytes32,address)": {
        "details": "Revokes `role` from `account`. If `account` had been granted `role`, emits a {RoleRevoked} event. Requirements: - the caller must have ``role``'s admin role. May emit a {RoleRevoked} event."
      },
      "supportsInterface(bytes4)": {
        "details": "See {IERC165-supportsInterface}."
      }
    },
    "version": 1
  },
  "userdoc": {
    "kind": "user",
    "methods": {},
    "version": 1
  }
}